{"project/contracts/AuditLog.sol":{"AuditLog":{"abi":[{"anonymous":false,"inputs":[{"indexed":true,"internalType":"address","name":"validator","type":"address"},{"indexed":false,"internalType":"uint256","name":"amount","type":"uint256"},{"indexed":false,"internalType":"string","name":"reason","type":"string"}],"name":"ValidatorSlashed","type":"event"},{"anonymous":false,"inputs":[{"indexed":true,"internalType":"address","name":"agentId","type":"address"},{"indexed":false,"internalType":"enum AuditLog.Tier","name":"tier","type":"uint8"},{"indexed":false,"internalType":"uint256","name":"timestamp","type":"uint256"},{"indexed":false,"internalType":"string","name":"reason","type":"string"}],"name":"VerdictLogged","type":"event"},{"inputs":[{"internalType":"address","name":"validator","type":"address"},{"internalType":"uint256","name":"amount","type":"uint256"},{"internalType":"string","name":"reason","type":"string"}],"name":"emitSlashed","outputs":[],"stateMutability":"nonpayable","type":"function"},{"inputs":[{"internalType":"address","name":"agentId","type":"address"}],"name":"getHistory","outputs":[{"components":[{"internalType":"address","name":"agentId","type":"address"},{"internalType":"enum AuditLog.Tier","name":"tier","type":"uint8"},{"internalType":"uint256","name":"timestamp","type":"uint256"},{"internalType":"string","name":"reason","type":"string"}],"internalType":"struct AuditLog.Verdict[]","name":"","type":"tuple[]"}],"stateMutability":"view","type":"function"},{"inputs":[{"internalType":"address","name":"agentId","type":"address"},{"internalType":"enum AuditLog.Tier","name":"tier","type":"uint8"},{"internalType":"string","name":"reason","type":"string"}],"name":"logVerdict","outputs":[],"stateMutability":"nonpayable","type":"function"}],"evm":{"bytecode":{"linkReferences":{},"object":"608060405234801561000f575f80fd5b50610d238061001d5f395ff3fe608060405234801561000f575f80fd5b506004361061003f575f3560e01c80633a16434714610043578063803968111461005f578063b29552081461008f575b5f80fd5b61005d6004803603810190610058919061058b565b6100ab565b005b610079600480360381019061007491906105fc565b61028d565b6040516100869190610866565b60405180910390f35b6100a960048036038101906100a491906108b0565b61044d565b005b5f60405180608001604052808673ffffffffffffffffffffffffffffffffffffffff1681526020018560038111156100e6576100e561065f565b5b815260200142815260200184848080601f0160208091040260200160405190810160405280939291908181526020018383808284375f81840152601f19601f8201169050808301925050505050505081525090505f808673ffffffffffffffffffffffffffffffffffffffff1673ffffffffffffffffffffffffffffffffffffffff1681526020019081526020015f2081908060018154018082558091505060019003905f5260205f2090600302015f909190919091505f820151815f015f6101000a81548173ffffffffffffffffffffffffffffffffffffffff021916908373ffffffffffffffffffffffffffffffffffffffff1602179055506020820151815f0160146101000a81548160ff0219169083600381111561020b5761020a61065f565b5b021790555060408201518160010155606082015181600201908161022f9190610b48565b5050508473ffffffffffffffffffffffffffffffffffffffff167f70a27a17980d8ef4984888868d4460161c75ab1645daef5358575778408fb5728542868660405161027e9493929190610c7f565b60405180910390a25050505050565b60605f808373ffffffffffffffffffffffffffffffffffffffff1673ffffffffffffffffffffffffffffffffffffffff1681526020019081526020015f20805480602002602001604051908101604052809291908181526020015f905b82821015610442578382905f5260205f2090600302016040518060800160405290815f82015f9054906101000a900473ffffffffffffffffffffffffffffffffffffffff1673ffffffffffffffffffffffffffffffffffffffff1673ffffffffffffffffffffffffffffffffffffffff1681526020015f820160149054906101000a900460ff1660038111156103835761038261065f565b5b60038111156103955761039461065f565b5b8152602001600182015481526020016002820180546103b39061097b565b80601f01602080910402602001604051908101604052809291908181526020018280546103df9061097b565b801561042a5780601f106104015761010080835404028352916020019161042a565b820191905f5260205f20905b81548152906001019060200180831161040d57829003601f168201915b505050505081525050815260200190600101906102ea565b505050509050919050565b8373ffffffffffffffffffffffffffffffffffffffff167f074c8604eab659bccd1619a91a9588244a2442723fdcb05af0aa39da9fc6865784848460405161049793929190610cbd565b60405180910390a250505050565b5f80fd5b5f80fd5b5f73ffffffffffffffffffffffffffffffffffffffff82169050919050565b5f6104d6826104ad565b9050919050565b6104e6816104cc565b81146104f0575f80fd5b50565b5f81359050610501816104dd565b92915050565b60048110610513575f80fd5b50565b5f8135905061052481610507565b92915050565b5f80fd5b5f80fd5b5f80fd5b5f8083601f84011261054b5761054a61052a565b5b8235905067ffffffffffffffff8111156105685761056761052e565b5b60208301915083600182028301111561058457610583610532565b5b9250929050565b5f805f80606085870312156105a3576105a26104a5565b5b5f6105b0878288016104f3565b94505060206105c187828801610516565b935050604085013567ffffffffffffffff8111156105e2576105e16104a9565b5b6105ee87828801610536565b925092505092959194509250565b5f60208284031215610611576106106104a5565b5b5f61061e848285016104f3565b91505092915050565b5f81519050919050565b5f82825260208201905092915050565b5f819050602082019050919050565b610659816104cc565b82525050565b7f4e487b71000000000000000000000000000000000000000000000000000000005f52602160045260245ffd5b6004811061069d5761069c61065f565b5b50565b5f8190506106ad8261068c565b919050565b5f6106bc826106a0565b9050919050565b6106cc816106b2565b82525050565b5f819050919050565b6106e4816106d2565b82525050565b5f81519050919050565b5f82825260208201905092915050565b5f5b83811015610721578082015181840152602081019050610706565b5f8484015250505050565b5f601f19601f8301169050919050565b5f610746826106ea565b61075081856106f4565b9350610760818560208601610704565b6107698161072c565b840191505092915050565b5f608083015f8301516107895f860182610650565b50602083015161079c60208601826106c3565b5060408301516107af60408601826106db565b50606083015184820360608601526107c7828261073c565b9150508091505092915050565b5f6107df8383610774565b905092915050565b5f602082019050919050565b5f6107fd82610627565b6108078185610631565b93508360208202850161081985610641565b805f5b85811015610854578484038952815161083585826107d4565b9450610840836107e7565b925060208a0199505060018101905061081c565b50829750879550505050505092915050565b5f6020820190508181035f83015261087e81846107f3565b905092915050565b61088f816106d2565b8114610899575f80fd5b50565b5f813590506108aa81610886565b92915050565b5f805f80606085870312156108c8576108c76104a5565b5b5f6108d5878288016104f3565b94505060206108e68782880161089c565b935050604085013567ffffffffffffffff811115610907576109066104a9565b5b61091387828801610536565b925092505092959194509250565b7f4e487b71000000000000000000000000000000000000000000000000000000005f52604160045260245ffd5b7f4e487b71000000000000000000000000000000000000000000000000000000005f52602260045260245ffd5b5f600282049050600182168061099257607f821691505b6020821081036109a5576109a461094e565b5b50919050565b5f819050815f5260205f209050919050565b5f6020601f8301049050919050565b5f82821b905092915050565b5f60088302610a077fffffffffffffffffffffffffffffffffffffffffffffffffffffffffffffffff826109cc565b610a1186836109cc565b95508019841693508086168417925050509392505050565b5f819050919050565b5f610a4c610a47610a42846106d2565b610a29565b6106d2565b9050919050565b5f819050919050565b610a6583610a32565b610a79610a7182610a53565b8484546109d8565b825550505050565b5f90565b610a8d610a81565b610a98818484610a5c565b505050565b5b81811015610abb57610ab05f82610a85565b600181019050610a9e565b5050565b601f821115610b0057610ad1816109ab565b610ada846109bd565b81016020851015610ae9578190505b610afd610af5856109bd565b830182610a9d565b50505b505050565b5f82821c905092915050565b5f610b205f1984600802610b05565b1980831691505092915050565b5f610b388383610b11565b9150826002028217905092915050565b610b51826106ea565b67ffffffffffffffff811115610b6a57610b69610921565b5b610b74825461097b565b610b7f828285610abf565b5f60209050601f831160018114610bb0575f8415610b9e578287015190505b610ba88582610b2d565b865550610c0f565b601f198416610bbe866109ab565b5f5b82811015610be557848901518255600182019150602085019450602081019050610bc0565b86831015610c025784890151610bfe601f891682610b11565b8355505b6001600288020188555050505b505050505050565b610c20816106b2565b82525050565b610c2f816106d2565b82525050565b5f82825260208201905092915050565b828183375f83830152505050565b5f610c5e8385610c35565b9350610c6b838584610c45565b610c748361072c565b840190509392505050565b5f606082019050610c925f830187610c17565b610c9f6020830186610c26565b8181036040830152610cb2818486610c53565b905095945050505050565b5f604082019050610cd05f830186610c26565b8181036020830152610ce3818486610c53565b905094935050505056fea2646970667358221220357113154c947c2e26b5855e5a8331b45970fc221ea7d4ac6f6a6615a7e2c6d564736f6c63430008180033","opcodes":"PUSH1 0x80 PUSH1 0x40 MSTORE CALLVALUE DUP1 ISZERO PUSH2 0xF JUMPI PUSH0 DUP1 REVERT JUMPDEST POP PUSH2 0xD23 DUP1 PUSH2 0x1D PUSH0 CODECOPY PUSH0 RETURN INVALID PUSH1 0x80 PUSH1 0x40 MSTORE CALLVALUE DUP1 ISZERO PUSH2 0xF JUMPI PUSH0 DUP1 REVERT JUMPDEST POP PUSH1 0x4 CALLDATASIZE LT PUSH2 0x3F JUMPI PUSH0 CALLDATALOAD PUSH1 0xE0 SHR DUP1 PUSH4 0x3A164347 EQ PUSH2 0x43 JUMPI DUP1 PUSH4 0x80396811 EQ PUSH2 0x5F JUMPI DUP1 PUSH4 0xB2955208 EQ PUSH2 0x8F JUMPI JUMPDEST PUSH0 DUP1 REVERT JUMPDEST PUSH2 0x5D PUSH1 0x4 DUP1 CALLDATASIZE SUB DUP2 ADD SWAP1 PUSH2 0x58 SWAP2 SWAP1 PUSH2 0x58B JUMP JUMPDEST PUSH2 0xAB JUMP JUMPDEST STOP JUMPDEST PUSH2 0x79 PUSH1 0x4 DUP1 CALLDATASIZE SUB DUP2 ADD SWAP1 PUSH2 0x74 SWAP2 SWAP1 PUSH2 0x5FC JUMP JUMPDEST PUSH2 0x28D JUMP JUMPDEST PUSH1 0x40 MLOAD PUSH2 0x86 SWAP2 SWAP1 PUSH2 0x866 JUMP JUMPDEST PUSH1 0x40 MLOAD DUP1 SWAP2 SUB SWAP1 RETURN JUMPDEST PUSH2 0xA9 PUSH1 0x4 DUP1 CALLDATASIZE SUB DUP2 ADD SWAP1 PUSH2 0xA4 SWAP2 SWAP1 PUSH2 0x8B0 JUMP JUMPDEST PUSH2 0x44D JUMP JUMPDEST STOP JUMPDEST PUSH0 PUSH1 0x40 MLOAD DUP1 PUSH1 0x80 ADD PUSH1 0x40 MSTORE DUP1 DUP7 PUSH20 0xFFFFFFFFFFFFFFFFFFFFFFFFFFFFFFFFFFFFFFFF AND DUP2 MSTORE PUSH1 0x20 ADD DUP6 PUSH1 0x3 DUP2 GT ISZERO PUSH2 0xE6 JUMPI PUSH2 0xE5 PUSH2 0x65F JUMP JUMPDEST JUMPDEST DUP2 MSTORE PUSH1 0x20 ADD TIMESTAMP DUP2 MSTORE PUSH1 0x20 ADD DUP5 DUP5 DUP1 DUP1 PUSH1 0x1F ADD PUSH1 0x20 DUP1 SWAP2 DIV MUL PUSH1 0x20 ADD PUSH1 0x40 MLOAD SWAP1 DUP2 ADD PUSH1 0x40 MSTORE DUP1 SWAP4 SWAP3 SWAP2 SWAP1 DUP2 DUP2 MSTORE PUSH1 0x20 ADD DUP4 DUP4 DUP1 DUP3 DUP5 CALLDATACOPY PUSH0 DUP2 DUP5 ADD MSTORE PUSH1 0x1F NOT PUSH1 0x1F DUP3 ADD AND SWAP1 POP DUP1 DUP4 ADD SWAP3 POP POP POP POP POP POP POP DUP2 MSTORE POP SWAP1 POP PUSH0 DUP1 DUP7 PUSH20 0xFFFFFFFFFFFFFFFFFFFFFFFFFFFFFFFFFFFFFFFF AND PUSH20 0xFFFFFFFFFFFFFFFFFFFFFFFFFFFFFFFFFFFFFFFF AND DUP2 MSTORE PUSH1 0x20 ADD SWAP1 DUP2 MSTORE PUSH1 0x20 ADD PUSH0 KECCAK256 DUP2 SWAP1 DUP1 PUSH1 0x1 DUP2 SLOAD ADD DUP1 DUP3 SSTORE DUP1 SWAP2 POP POP PUSH1 0x1 SWAP1 SUB SWAP1 PUSH0 MSTORE PUSH1 0x20 PUSH0 KECCAK256 SWAP1 PUSH1 0x3 MUL ADD PUSH0 SWAP1 SWAP2 SWAP1 SWAP2 SWAP1 SWAP2 POP PUSH0 DUP3 ADD MLOAD DUP2 PUSH0 ADD PUSH0 PUSH2 0x100 EXP DUP2 SLOAD DUP2 PUSH20 0xFFFFFFFFFFFFFFFFFFFFFFFFFFFFFFFFFFFFFFFF MUL NOT AND SWAP1 DUP4 PUSH20 0xFFFFFFFFFFFFFFFFFFFFFFFFFFFFFFFFFFFFFFFF AND MUL OR SWAP1 SSTORE POP PUSH1 0x20 DUP3 ADD MLOAD DUP2 PUSH0 ADD PUSH1 0x14 PUSH2 0x100 EXP DUP2 SLOAD DUP2 PUSH1 0xFF MUL NOT AND SWAP1 DUP4 PUSH1 0x3 DUP2 GT ISZERO PUSH2 0x20B JUMPI PUSH2 0x20A PUSH2 0x65F JUMP JUMPDEST JUMPDEST MUL OR SWAP1 SSTORE POP PUSH1 0x40 DUP3 ADD MLOAD DUP2 PUSH1 0x1 ADD SSTORE PUSH1 0x60 DUP3 ADD MLOAD DUP2 PUSH1 0x2 ADD SWAP1 DUP2 PUSH2 0x22F SWAP2 SWAP1 PUSH2 0xB48 JUMP JUMPDEST POP POP POP DUP5 PUSH20 0xFFFFFFFFFFFFFFFFFFFFFFFFFFFFFFFFFFFFFFFF AND PUSH32 0x70A27A17980D8EF4984888868D4460161C75AB1645DAEF5358575778408FB572 DUP6 TIMESTAMP DUP7 DUP7 PUSH1 0x40 MLOAD PUSH2 0x27E SWAP5 SWAP4 SWAP3 SWAP2 SWAP1 PUSH2 0xC7F JUMP JUMPDEST PUSH1 0x40 MLOAD DUP1 SWAP2 SUB SWAP1 LOG2 POP POP POP POP POP JUMP JUMPDEST PUSH1 0x60 PUSH0 DUP1 DUP4 PUSH20 0xFFFFFFFFFFFFFFFFFFFFFFFFFFFFFFFFFFFFFFFF AND PUSH20 0xFFFFFFFFFFFFFFFFFFFFFFFFFFFFFFFFFFFFFFFF AND DUP2 MSTORE PUSH1 0x20 ADD SWAP1 DUP2 MSTORE PUSH1 0x20 ADD PUSH0 KECCAK256 DUP1 SLOAD DUP1 PUSH1 0x20 MUL PUSH1 0x20 ADD PUSH1 0x40 MLOAD SWAP1 DUP2 ADD PUSH1 0x40 MSTORE DUP1 SWAP3 SWAP2 SWAP1 DUP2 DUP2 MSTORE PUSH1 0x20 ADD PUSH0 SWAP1 JUMPDEST DUP3 DUP3 LT ISZERO PUSH2 0x442 JUMPI DUP4 DUP3 SWAP1 PUSH0 MSTORE PUSH1 0x20 PUSH0 KECCAK256 SWAP1 PUSH1 0x3 MUL ADD PUSH1 0x40 MLOAD DUP1 PUSH1 0x80 ADD PUSH1 0x40 MSTORE SWAP1 DUP2 PUSH0 DUP3 ADD PUSH0 SWAP1 SLOAD SWAP1 PUSH2 0x100 EXP SWAP1 DIV PUSH20 0xFFFFFFFFFFFFFFFFFFFFFFFFFFFFFFFFFFFFFFFF AND PUSH20 0xFFFFFFFFFFFFFFFFFFFFFFFFFFFFFFFFFFFFFFFF AND PUSH20 0xFFFFFFFFFFFFFFFFFFFFFFFFFFFFFFFFFFFFFFFF AND DUP2 MSTORE PUSH1 0x20 ADD PUSH0 DUP3 ADD PUSH1 0x14 SWAP1 SLOAD SWAP1 PUSH2 0x100 EXP SWAP1 DIV PUSH1 0xFF AND PUSH1 0x3 DUP2 GT ISZERO PUSH2 0x383 JUMPI PUSH2 0x382 PUSH2 0x65F JUMP JUMPDEST JUMPDEST PUSH1 0x3 DUP2 GT ISZERO PUSH2 0x395 JUMPI PUSH2 0x394 PUSH2 0x65F JUMP JUMPDEST JUMPDEST DUP2 MSTORE PUSH1 0x20 ADD PUSH1 0x1 DUP3 ADD SLOAD DUP2 MSTORE PUSH1 0x20 ADD PUSH1 0x2 DUP3 ADD DUP1 SLOAD PUSH2 0x3B3 SWAP1 PUSH2 0x97B JUMP JUMPDEST DUP1 PUSH1 0x1F ADD PUSH1 0x20 DUP1 SWAP2 DIV MUL PUSH1 0x20 ADD PUSH1 0x40 MLOAD SWAP1 DUP2 ADD PUSH1 0x40 MSTORE DUP1 SWAP3 SWAP2 SWAP1 DUP2 DUP2 MSTORE PUSH1 0x20 ADD DUP3 DUP1 SLOAD PUSH2 0x3DF SWAP1 PUSH2 0x97B JUMP JUMPDEST DUP1 ISZERO PUSH2 0x42A JUMPI DUP1 PUSH1 0x1F LT PUSH2 0x401 JUMPI PUSH2 0x100 DUP1 DUP4 SLOAD DIV MUL DUP4 MSTORE SWAP2 PUSH1 0x20 ADD SWAP2 PUSH2 0x42A JUMP JUMPDEST DUP3 ADD SWAP2 SWAP1 PUSH0 MSTORE PUSH1 0x20 PUSH0 KECCAK256 SWAP1 JUMPDEST DUP2 SLOAD DUP2 MSTORE SWAP1 PUSH1 0x1 ADD SWAP1 PUSH1 0x20 ADD DUP1 DUP4 GT PUSH2 0x40D JUMPI DUP3 SWAP1 SUB PUSH1 0x1F AND DUP3 ADD SWAP2 JUMPDEST POP POP POP POP POP DUP2 MSTORE POP POP DUP2 MSTORE PUSH1 0x20 ADD SWAP1 PUSH1 0x1 ADD SWAP1 PUSH2 0x2EA JUMP JUMPDEST POP POP POP POP SWAP1 POP SWAP2 SWAP1 POP JUMP JUMPDEST DUP4 PUSH20 0xFFFFFFFFFFFFFFFFFFFFFFFFFFFFFFFFFFFFFFFF AND PUSH32 0x74C8604EAB659BCCD1619A91A9588244A2442723FDCB05AF0AA39DA9FC68657 DUP5 DUP5 DUP5 PUSH1 0x40 MLOAD PUSH2 0x497 SWAP4 SWAP3 SWAP2 SWAP1 PUSH2 0xCBD JUMP JUMPDEST PUSH1 0x40 MLOAD DUP1 SWAP2 SUB SWAP1 LOG2 POP POP POP POP JUMP JUMPDEST PUSH0 DUP1 REVERT JUMPDEST PUSH0 DUP1 REVERT JUMPDEST PUSH0 PUSH20 0xFFFFFFFFFFFFFFFFFFFFFFFFFFFFFFFFFFFFFFFF DUP3 AND SWAP1 POP SWAP2 SWAP1 POP JUMP JUMPDEST PUSH0 PUSH2 0x4D6 DUP3 PUSH2 0x4AD JUMP JUMPDEST SWAP1 POP SWAP2 SWAP1 POP JUMP JUMPDEST PUSH2 0x4E6 DUP2 PUSH2 0x4CC JUMP JUMPDEST DUP2 EQ PUSH2 0x4F0 JUMPI PUSH0 DUP1 REVERT JUMPDEST POP JUMP JUMPDEST PUSH0 DUP2 CALLDATALOAD SWAP1 POP PUSH2 0x501 DUP2 PUSH2 0x4DD JUMP JUMPDEST SWAP3 SWAP2 POP POP JUMP JUMPDEST PUSH1 0x4 DUP2 LT PUSH2 0x513 JUMPI PUSH0 DUP1 REVERT JUMPDEST POP JUMP JUMPDEST PUSH0 DUP2 CALLDATALOAD SWAP1 POP PUSH2 0x524 DUP2 PUSH2 0x507 JUMP JUMPDEST SWAP3 SWAP2 POP POP JUMP JUMPDEST PUSH0 DUP1 REVERT JUMPDEST PUSH0 DUP1 REVERT JUMPDEST PUSH0 DUP1 REVERT JUMPDEST PUSH0 DUP1 DUP4 PUSH1 0x1F DUP5 ADD SLT PUSH2 0x54B JUMPI PUSH2 0x54A PUSH2 0x52A JUMP JUMPDEST JUMPDEST DUP3 CALLDATALOAD SWAP1 POP PUSH8 0xFFFFFFFFFFFFFFFF DUP2 GT ISZERO PUSH2 0x568 JUMPI PUSH2 0x567 PUSH2 0x52E JUMP JUMPDEST JUMPDEST PUSH1 0x20 DUP4 ADD SWAP2 POP DUP4 PUSH1 0x1 DUP3 MUL DUP4 ADD GT ISZERO PUSH2 0x584 JUMPI PUSH2 0x583 PUSH2 0x532 JUMP JUMPDEST JUMPDEST SWAP3 POP SWAP3 SWAP1 POP JUMP JUMPDEST PUSH0 DUP1 PUSH0 DUP1 PUSH1 0x60 DUP6 DUP8 SUB SLT ISZERO PUSH2 0x5A3 JUMPI PUSH2 0x5A2 PUSH2 0x4A5 JUMP JUMPDEST JUMPDEST PUSH0 PUSH2 0x5B0 DUP8 DUP3 DUP9 ADD PUSH2 0x4F3 JUMP JUMPDEST SWAP5 POP POP PUSH1 0x20 PUSH2 0x5C1 DUP8 DUP3 DUP9 ADD PUSH2 0x516 JUMP JUMPDEST SWAP4 POP POP PUSH1 0x40 DUP6 ADD CALLDATALOAD PUSH8 0xFFFFFFFFFFFFFFFF DUP2 GT ISZERO PUSH2 0x5E2 JUMPI PUSH2 0x5E1 PUSH2 0x4A9 JUMP JUMPDEST JUMPDEST PUSH2 0x5EE DUP8 DUP3 DUP9 ADD PUSH2 0x536 JUMP JUMPDEST SWAP3 POP SWAP3 POP POP SWAP3 SWAP6 SWAP2 SWAP5 POP SWAP3 POP JUMP JUMPDEST PUSH0 PUSH1 0x20 DUP3 DUP5 SUB SLT ISZERO PUSH2 0x611 JUMPI PUSH2 0x610 PUSH2 0x4A5 JUMP JUMPDEST JUMPDEST PUSH0 PUSH2 0x61E DUP5 DUP3 DUP6 ADD PUSH2 0x4F3 JUMP JUMPDEST SWAP2 POP POP SWAP3 SWAP2 POP POP JUMP JUMPDEST PUSH0 DUP2 MLOAD SWAP1 POP SWAP2 SWAP1 POP JUMP JUMPDEST PUSH0 DUP3 DUP3 MSTORE PUSH1 0x20 DUP3 ADD SWAP1 POP SWAP3 SWAP2 POP POP JUMP JUMPDEST PUSH0 DUP2 SWAP1 POP PUSH1 0x20 DUP3 ADD SWAP1 POP SWAP2 SWAP1 POP JUMP JUMPDEST PUSH2 0x659 DUP2 PUSH2 0x4CC JUMP JUMPDEST DUP3 MSTORE POP POP JUMP JUMPDEST PUSH32 0x4E487B7100000000000000000000000000000000000000000000000000000000 PUSH0 MSTORE PUSH1 0x21 PUSH1 0x4 MSTORE PUSH1 0x24 PUSH0 REVERT JUMPDEST PUSH1 0x4 DUP2 LT PUSH2 0x69D JUMPI PUSH2 0x69C PUSH2 0x65F JUMP JUMPDEST JUMPDEST POP JUMP JUMPDEST PUSH0 DUP2 SWAP1 POP PUSH2 0x6AD DUP3 PUSH2 0x68C JUMP JUMPDEST SWAP2 SWAP1 POP JUMP JUMPDEST PUSH0 PUSH2 0x6BC DUP3 PUSH2 0x6A0 JUMP JUMPDEST SWAP1 POP SWAP2 SWAP1 POP JUMP JUMPDEST PUSH2 0x6CC DUP2 PUSH2 0x6B2 JUMP JUMPDEST DUP3 MSTORE POP POP JUMP JUMPDEST PUSH0 DUP2 SWAP1 POP SWAP2 SWAP1 POP JUMP JUMPDEST PUSH2 0x6E4 DUP2 PUSH2 0x6D2 JUMP JUMPDEST DUP3 MSTORE POP POP JUMP JUMPDEST PUSH0 DUP2 MLOAD SWAP1 POP SWAP2 SWAP1 POP JUMP JUMPDEST PUSH0 DUP3 DUP3 MSTORE PUSH1 0x20 DUP3 ADD SWAP1 POP SWAP3 SWAP2 POP POP JUMP JUMPDEST PUSH0 JUMPDEST DUP4 DUP2 LT ISZERO PUSH2 0x721 JUMPI DUP1 DUP3 ADD MLOAD DUP2 DUP5 ADD MSTORE PUSH1 0x20 DUP2 ADD SWAP1 POP PUSH2 0x706 JUMP JUMPDEST PUSH0 DUP5 DUP5 ADD MSTORE POP POP POP POP JUMP JUMPDEST PUSH0 PUSH1 0x1F NOT PUSH1 0x1F DUP4 ADD AND SWAP1 POP SWAP2 SWAP1 POP JUMP JUMPDEST PUSH0 PUSH2 0x746 DUP3 PUSH2 0x6EA JUMP JUMPDEST PUSH2 0x750 DUP2 DUP6 PUSH2 0x6F4 JUMP JUMPDEST SWAP4 POP PUSH2 0x760 DUP2 DUP6 PUSH1 0x20 DUP7 ADD PUSH2 0x704 JUMP JUMPDEST PUSH2 0x769 DUP2 PUSH2 0x72C JUMP JUMPDEST DUP5 ADD SWAP2 POP POP SWAP3 SWAP2 POP POP JUMP JUMPDEST PUSH0 PUSH1 0x80 DUP4 ADD PUSH0 DUP4 ADD MLOAD PUSH2 0x789 PUSH0 DUP7 ADD DUP3 PUSH2 0x650 JUMP JUMPDEST POP PUSH1 0x20 DUP4 ADD MLOAD PUSH2 0x79C PUSH1 0x20 DUP7 ADD DUP3 PUSH2 0x6C3 JUMP JUMPDEST POP PUSH1 0x40 DUP4 ADD MLOAD PUSH2 0x7AF PUSH1 0x40 DUP7 ADD DUP3 PUSH2 0x6DB JUMP JUMPDEST POP PUSH1 0x60 DUP4 ADD MLOAD DUP5 DUP3 SUB PUSH1 0x60 DUP7 ADD MSTORE PUSH2 0x7C7 DUP3 DUP3 PUSH2 0x73C JUMP JUMPDEST SWAP2 POP POP DUP1 SWAP2 POP POP SWAP3 SWAP2 POP POP JUMP JUMPDEST PUSH0 PUSH2 0x7DF DUP4 DUP4 PUSH2 0x774 JUMP JUMPDEST SWAP1 POP SWAP3 SWAP2 POP POP JUMP JUMPDEST PUSH0 PUSH1 0x20 DUP3 ADD SWAP1 POP SWAP2 SWAP1 POP JUMP JUMPDEST PUSH0 PUSH2 0x7FD DUP3 PUSH2 0x627 JUMP JUMPDEST PUSH2 0x807 DUP2 DUP6 PUSH2 0x631 JUMP JUMPDEST SWAP4 POP DUP4 PUSH1 0x20 DUP3 MUL DUP6 ADD PUSH2 0x819 DUP6 PUSH2 0x641 JUMP JUMPDEST DUP1 PUSH0 JUMPDEST DUP6 DUP2 LT ISZERO PUSH2 0x854 JUMPI DUP5 DUP5 SUB DUP10 MSTORE DUP2 MLOAD PUSH2 0x835 DUP6 DUP3 PUSH2 0x7D4 JUMP JUMPDEST SWAP5 POP PUSH2 0x840 DUP4 PUSH2 0x7E7 JUMP JUMPDEST SWAP3 POP PUSH1 0x20 DUP11 ADD SWAP10 POP POP PUSH1 0x1 DUP2 ADD SWAP1 POP PUSH2 0x81C JUMP JUMPDEST POP DUP3 SWAP8 POP DUP8 SWAP6 POP POP POP POP POP POP SWAP3 SWAP2 POP POP JUMP JUMPDEST PUSH0 PUSH1 0x20 DUP3 ADD SWAP1 POP DUP2 DUP2 SUB PUSH0 DUP4 ADD MSTORE PUSH2 0x87E DUP2 DUP5 PUSH2 0x7F3 JUMP JUMPDEST SWAP1 POP SWAP3 SWAP2 POP POP JUMP JUMPDEST PUSH2 0x88F DUP2 PUSH2 0x6D2 JUMP JUMPDEST DUP2 EQ PUSH2 0x899 JUMPI PUSH0 DUP1 REVERT JUMPDEST POP JUMP JUMPDEST PUSH0 DUP2 CALLDATALOAD SWAP1 POP PUSH2 0x8AA DUP2 PUSH2 0x886 JUMP JUMPDEST SWAP3 SWAP2 POP POP JUMP JUMPDEST PUSH0 DUP1 PUSH0 DUP1 PUSH1 0x60 DUP6 DUP8 SUB SLT ISZERO PUSH2 0x8C8 JUMPI PUSH2 0x8C7 PUSH2 0x4A5 JUMP JUMPDEST JUMPDEST PUSH0 PUSH2 0x8D5 DUP8 DUP3 DUP9 ADD PUSH2 0x4F3 JUMP JUMPDEST SWAP5 POP POP PUSH1 0x20 PUSH2 0x8E6 DUP8 DUP3 DUP9 ADD PUSH2 0x89C JUMP JUMPDEST SWAP4 POP POP PUSH1 0x40 DUP6 ADD CALLDATALOAD PUSH8 0xFFFFFFFFFFFFFFFF DUP2 GT ISZERO PUSH2 0x907 JUMPI PUSH2 0x906 PUSH2 0x4A9 JUMP JUMPDEST JUMPDEST PUSH2 0x913 DUP8 DUP3 DUP9 ADD PUSH2 0x536 JUMP JUMPDEST SWAP3 POP SWAP3 POP POP SWAP3 SWAP6 SWAP2 SWAP5 POP SWAP3 POP JUMP JUMPDEST PUSH32 0x4E487B7100000000000000000000000000000000000000000000000000000000 PUSH0 MSTORE PUSH1 0x41 PUSH1 0x4 MSTORE PUSH1 0x24 PUSH0 REVERT JUMPDEST PUSH32 0x4E487B7100000000000000000000000000000000000000000000000000000000 PUSH0 MSTORE PUSH1 0x22 PUSH1 0x4 MSTORE PUSH1 0x24 PUSH0 REVERT JUMPDEST PUSH0 PUSH1 0x2 DUP3 DIV SWAP1 POP PUSH1 0x1 DUP3 AND DUP1 PUSH2 0x992 JUMPI PUSH1 0x7F DUP3 AND SWAP2 POP JUMPDEST PUSH1 0x20 DUP3 LT DUP2 SUB PUSH2 0x9A5 JUMPI PUSH2 0x9A4 PUSH2 0x94E JUMP JUMPDEST JUMPDEST POP SWAP2 SWAP1 POP JUMP JUMPDEST PUSH0 DUP2 SWAP1 POP DUP2 PUSH0 MSTORE PUSH1 0x20 PUSH0 KECCAK256 SWAP1 POP SWAP2 SWAP1 POP JUMP JUMPDEST PUSH0 PUSH1 0x20 PUSH1 0x1F DUP4 ADD DIV SWAP1 POP SWAP2 SWAP1 POP JUMP JUMPDEST PUSH0 DUP3 DUP3 SHL SWAP1 POP SWAP3 SWAP2 POP POP JUMP JUMPDEST PUSH0 PUSH1 0x8 DUP4 MUL PUSH2 0xA07 PUSH32 0xFFFFFFFFFFFFFFFFFFFFFFFFFFFFFFFFFFFFFFFFFFFFFFFFFFFFFFFFFFFFFFFF DUP3 PUSH2 0x9CC JUMP JUMPDEST PUSH2 0xA11 DUP7 DUP4 PUSH2 0x9CC JUMP JUMPDEST SWAP6 POP DUP1 NOT DUP5 AND SWAP4 POP DUP1 DUP7 AND DUP5 OR SWAP3 POP POP POP SWAP4 SWAP3 POP POP POP JUMP JUMPDEST PUSH0 DUP2 SWAP1 POP SWAP2 SWAP1 POP JUMP JUMPDEST PUSH0 PUSH2 0xA4C PUSH2 0xA47 PUSH2 0xA42 DUP5 PUSH2 0x6D2 JUMP JUMPDEST PUSH2 0xA29 JUMP JUMPDEST PUSH2 0x6D2 JUMP JUMPDEST SWAP1 POP SWAP2 SWAP1 POP JUMP JUMPDEST PUSH0 DUP2 SWAP1 POP SWAP2 SWAP1 POP JUMP JUMPDEST PUSH2 0xA65 DUP4 PUSH2 0xA32 JUMP JUMPDEST PUSH2 0xA79 PUSH2 0xA71 DUP3 PUSH2 0xA53 JUMP JUMPDEST DUP5 DUP5 SLOAD PUSH2 0x9D8 JUMP JUMPDEST DUP3 SSTORE POP POP POP POP JUMP JUMPDEST PUSH0 SWAP1 JUMP JUMPDEST PUSH2 0xA8D PUSH2 0xA81 JUMP JUMPDEST PUSH2 0xA98 DUP2 DUP5 DUP5 PUSH2 0xA5C JUMP JUMPDEST POP POP POP JUMP JUMPDEST JUMPDEST DUP2 DUP2 LT ISZERO PUSH2 0xABB JUMPI PUSH2 0xAB0 PUSH0 DUP3 PUSH2 0xA85 JUMP JUMPDEST PUSH1 0x1 DUP2 ADD SWAP1 POP PUSH2 0xA9E JUMP JUMPDEST POP POP JUMP JUMPDEST PUSH1 0x1F DUP3 GT ISZERO PUSH2 0xB00 JUMPI PUSH2 0xAD1 DUP2 PUSH2 0x9AB JUMP JUMPDEST PUSH2 0xADA DUP5 PUSH2 0x9BD JUMP JUMPDEST DUP2 ADD PUSH1 0x20 DUP6 LT ISZERO PUSH2 0xAE9 JUMPI DUP2 SWAP1 POP JUMPDEST PUSH2 0xAFD PUSH2 0xAF5 DUP6 PUSH2 0x9BD JUMP JUMPDEST DUP4 ADD DUP3 PUSH2 0xA9D JUMP JUMPDEST POP POP JUMPDEST POP POP POP JUMP JUMPDEST PUSH0 DUP3 DUP3 SHR SWAP1 POP SWAP3 SWAP2 POP POP JUMP JUMPDEST PUSH0 PUSH2 0xB20 PUSH0 NOT DUP5 PUSH1 0x8 MUL PUSH2 0xB05 JUMP JUMPDEST NOT DUP1 DUP4 AND SWAP2 POP POP SWAP3 SWAP2 POP POP JUMP JUMPDEST PUSH0 PUSH2 0xB38 DUP4 DUP4 PUSH2 0xB11 JUMP JUMPDEST SWAP2 POP DUP3 PUSH1 0x2 MUL DUP3 OR SWAP1 POP SWAP3 SWAP2 POP POP JUMP JUMPDEST PUSH2 0xB51 DUP3 PUSH2 0x6EA JUMP JUMPDEST PUSH8 0xFFFFFFFFFFFFFFFF DUP2 GT ISZERO PUSH2 0xB6A JUMPI PUSH2 0xB69 PUSH2 0x921 JUMP JUMPDEST JUMPDEST PUSH2 0xB74 DUP3 SLOAD PUSH2 0x97B JUMP JUMPDEST PUSH2 0xB7F DUP3 DUP3 DUP6 PUSH2 0xABF JUMP JUMPDEST PUSH0 PUSH1 0x20 SWAP1 POP PUSH1 0x1F DUP4 GT PUSH1 0x1 DUP2 EQ PUSH2 0xBB0 JUMPI PUSH0 DUP5 ISZERO PUSH2 0xB9E JUMPI DUP3 DUP8 ADD MLOAD SWAP1 POP JUMPDEST PUSH2 0xBA8 DUP6 DUP3 PUSH2 0xB2D JUMP JUMPDEST DUP7 SSTORE POP PUSH2 0xC0F JUMP JUMPDEST PUSH1 0x1F NOT DUP5 AND PUSH2 0xBBE DUP7 PUSH2 0x9AB JUMP JUMPDEST PUSH0 JUMPDEST DUP3 DUP2 LT ISZERO PUSH2 0xBE5 JUMPI DUP5 DUP10 ADD MLOAD DUP3 SSTORE PUSH1 0x1 DUP3 ADD SWAP2 POP PUSH1 0x20 DUP6 ADD SWAP5 POP PUSH1 0x20 DUP2 ADD SWAP1 POP PUSH2 0xBC0 JUMP JUMPDEST DUP7 DUP4 LT ISZERO PUSH2 0xC02 JUMPI DUP5 DUP10 ADD MLOAD PUSH2 0xBFE PUSH1 0x1F DUP10 AND DUP3 PUSH2 0xB11 JUMP JUMPDEST DUP4 SSTORE POP JUMPDEST PUSH1 0x1 PUSH1 0x2 DUP9 MUL ADD DUP9 SSTORE POP POP POP JUMPDEST POP POP POP POP POP POP JUMP JUMPDEST PUSH2 0xC20 DUP2 PUSH2 0x6B2 JUMP JUMPDEST DUP3 MSTORE POP POP JUMP JUMPDEST PUSH2 0xC2F DUP2 PUSH2 0x6D2 JUMP JUMPDEST DUP3 MSTORE POP POP JUMP JUMPDEST PUSH0 DUP3 DUP3 MSTORE PUSH1 0x20 DUP3 ADD SWAP1 POP SWAP3 SWAP2 POP POP JUMP JUMPDEST DUP3 DUP2 DUP4 CALLDATACOPY PUSH0 DUP4 DUP4 ADD MSTORE POP POP POP JUMP JUMPDEST PUSH0 PUSH2 0xC5E DUP4 DUP6 PUSH2 0xC35 JUMP JUMPDEST SWAP4 POP PUSH2 0xC6B DUP4 DUP6 DUP5 PUSH2 0xC45 JUMP JUMPDEST PUSH2 0xC74 DUP4 PUSH2 0x72C JUMP JUMPDEST DUP5 ADD SWAP1 POP SWAP4 SWAP3 POP POP POP JUMP JUMPDEST PUSH0 PUSH1 0x60 DUP3 ADD SWAP1 POP PUSH2 0xC92 PUSH0 DUP4 ADD DUP8 PUSH2 0xC17 JUMP JUMPDEST PUSH2 0xC9F PUSH1 0x20 DUP4 ADD DUP7 PUSH2 0xC26 JUMP JUMPDEST DUP2 DUP2 SUB PUSH1 0x40 DUP4 ADD MSTORE PUSH2 0xCB2 DUP2 DUP5 DUP7 PUSH2 0xC53 JUMP JUMPDEST SWAP1 POP SWAP6 SWAP5 POP POP POP POP POP JUMP JUMPDEST PUSH0 PUSH1 0x40 DUP3 ADD SWAP1 POP PUSH2 0xCD0 PUSH0 DUP4 ADD DUP7 PUSH2 0xC26 JUMP JUMPDEST DUP2 DUP2 SUB PUSH1 0x20 DUP4 ADD MSTORE PUSH2 0xCE3 DUP2 DUP5 DUP7 PUSH2 0xC53 JUMP JUMPDEST SWAP1 POP SWAP5 SWAP4 POP POP POP POP JUMP INVALID LOG2 PUSH5 0x6970667358 0x22 SLT KECCAK256 CALLDATALOAD PUSH18 0x13154C947C2E26B5855E5A8331B45970FC22 0x1E 0xA7 0xD4 0xAC PUSH16 0x6A6615A7E2C6D564736F6C6343000818 STOP CALLER "},"methodIdentifiers":{"emitSlashed(address,uint256,string)":"b2955208","getHistory(address)":"80396811","logVerdict(address,uint8,string)":"3a164347"}}}}}