{"project/contracts/EvaluationEngine.sol":{"EvaluationEngine":{"abi":[{"anonymous":false,"inputs":[{"indexed":true,"internalType":"address","name":"agentId","type":"address"},{"indexed":false,"internalType":"enum EvaluationEngine.Tier","name":"tier","type":"uint8"},{"indexed":false,"internalType":"string","name":"reason","type":"string"}],"name":"VerdictReached","type":"event"},{"inputs":[{"internalType":"address","name":"agentId","type":"address"},{"internalType":"bytes32","name":"actionRequestHash","type":"bytes32"},{"internalType":"bytes[]","name":"validatorSignatures","type":"bytes[]"},{"internalType":"enum EvaluationEngine.Tier","name":"tier","type":"uint8"},{"internalType":"string","name":"reason","type":"string"}],"name":"submitEvaluation","outputs":[],"stateMutability":"nonpayable","type":"function"}],"evm":{"bytecode":{"linkReferences":{},"object":"608060405234801561000f575f80fd5b5061062d8061001d5f395ff3fe608060405234801561000f575f80fd5b5060043610610029575f3560e01c8063b1252c501461002d575b5f80fd5b6100476004803603810190610042919061030b565b610049565b005b5f73ffffffffffffffffffffffffffffffffffffffff168773ffffffffffffffffffffffffffffffffffffffff16036100b7576040517f08c379a00000000000000000000000000000000000000000000000000000000081526004016100ae9061041c565b60405180910390fd5b5f801b86036100fb576040517f08c379a00000000000000000000000000000000000000000000000000000000081526004016100f290610484565b60405180910390fd5b6002858590501015610142576040517f08c379a0000000000000000000000000000000000000000000000000000000008152600401610139906104ec565b60405180910390fd5b8673ffffffffffffffffffffffffffffffffffffffff167fbacbeca71a0b0d843d35e94220ffb0e50cbd806abe4253858bb791216eec6cbc84848460405161018c939291906105c7565b60405180910390a250505050505050565b5f80fd5b5f80fd5b5f73ffffffffffffffffffffffffffffffffffffffff82169050919050565b5f6101ce826101a5565b9050919050565b6101de816101c4565b81146101e8575f80fd5b50565b5f813590506101f9816101d5565b92915050565b5f819050919050565b610211816101ff565b811461021b575f80fd5b50565b5f8135905061022c81610208565b92915050565b5f80fd5b5f80fd5b5f80fd5b5f8083601f84011261025357610252610232565b5b8235905067ffffffffffffffff8111156102705761026f610236565b5b60208301915083602082028301111561028c5761028b61023a565b5b9250929050565b6004811061029f575f80fd5b50565b5f813590506102b081610293565b92915050565b5f8083601f8401126102cb576102ca610232565b5b8235905067ffffffffffffffff8111156102e8576102e7610236565b5b6020830191508360018202830111156103045761030361023a565b5b9250929050565b5f805f805f805f60a0888a0312156103265761032561019d565b5b5f6103338a828b016101eb565b97505060206103448a828b0161021e565b965050604088013567ffffffffffffffff811115610365576103646101a1565b5b6103718a828b0161023e565b955095505060606103848a828b016102a2565b935050608088013567ffffffffffffffff8111156103a5576103a46101a1565b5b6103b18a828b016102b6565b925092505092959891949750929550565b5f82825260208201905092915050565b7f696e76616c6964206167656e74000000000000000000000000000000000000005f82015250565b5f610406600d836103c2565b9150610411826103d2565b602082019050919050565b5f6020820190508181035f830152610433816103fa565b9050919050565b7f696e76616c6964207265717565737400000000000000000000000000000000005f82015250565b5f61046e600f836103c2565b91506104798261043a565b602082019050919050565b5f6020820190508181035f83015261049b81610462565b9050919050565b7f6e65656420322d6f662d330000000000000000000000000000000000000000005f82015250565b5f6104d6600b836103c2565b91506104e1826104a2565b602082019050919050565b5f6020820190508181035f830152610503816104ca565b9050919050565b7f4e487b71000000000000000000000000000000000000000000000000000000005f52602160045260245ffd5b600481106105485761054761050a565b5b50565b5f81905061055882610537565b919050565b5f6105678261054b565b9050919050565b6105778161055d565b82525050565b828183375f83830152505050565b5f601f19601f8301169050919050565b5f6105a683856103c2565b93506105b383858461057d565b6105bc8361058b565b840190509392505050565b5f6040820190506105da5f83018661056e565b81810360208301526105ed81848661059b565b905094935050505056fea2646970667358221220780f254ab4ed37390be1b9a5a1ec26b3386cbe8b0052828c0f0eec6c0e190e2264736f6c63430008180033","opcodes":"PUSH1 0x80 PUSH1 0x40 MSTORE CALLVALUE DUP1 ISZERO PUSH2 0xF JUMPI PUSH0 DUP1 REVERT JUMPDEST POP PUSH2 0x62D DUP1 PUSH2 0x1D PUSH0 CODECOPY PUSH0 RETURN INVALID PUSH1 0x80 PUSH1 0x40 MSTORE CALLVALUE DUP1 ISZERO PUSH2 0xF JUMPI PUSH0 DUP1 REVERT JUMPDEST POP PUSH1 0x4 CALLDATASIZE LT PUSH2 0x29 JUMPI PUSH0 CALLDATALOAD PUSH1 0xE0 SHR DUP1 PUSH4 0xB1252C50 EQ PUSH2 0x2D JUMPI JUMPDEST PUSH0 DUP1 REVERT JUMPDEST PUSH2 0x47 PUSH1 0x4 DUP1 CALLDATASIZE SUB DUP2 ADD SWAP1 PUSH2 0x42 SWAP2 SWAP1 PUSH2 0x30B JUMP JUMPDEST PUSH2 0x49 JUMP JUMPDEST STOP JUMPDEST PUSH0 PUSH20 0xFFFFFFFFFFFFFFFFFFFFFFFFFFFFFFFFFFFFFFFF AND DUP8 PUSH20 0xFFFFFFFFFFFFFFFFFFFFFFFFFFFFFFFFFFFFFFFF AND SUB PUSH2 0xB7 JUMPI PUSH1 0x40 MLOAD PUSH32 0x8C379A000000000000000000000000000000000000000000000000000000000 DUP2 MSTORE PUSH1 0x4 ADD PUSH2 0xAE SWAP1 PUSH2 0x41C JUMP JUMPDEST PUSH1 0x40 MLOAD DUP1 SWAP2 SUB SWAP1 REVERT JUMPDEST PUSH0 DUP1 SHL DUP7 SUB PUSH2 0xFB JUMPI PUSH1 0x40 MLOAD PUSH32 0x8C379A000000000000000000000000000000000000000000000000000000000 DUP2 MSTORE PUSH1 0x4 ADD PUSH2 0xF2 SWAP1 PUSH2 0x484 JUMP JUMPDEST PUSH1 0x40 MLOAD DUP1 SWAP2 SUB SWAP1 REVERT JUMPDEST PUSH1 0x2 DUP6 DUP6 SWAP1 POP LT ISZERO PUSH2 0x142 JUMPI PUSH1 0x40 MLOAD PUSH32 0x8C379A000000000000000000000000000000000000000000000000000000000 DUP2 MSTORE PUSH1 0x4 ADD PUSH2 0x139 SWAP1 PUSH2 0x4EC JUMP JUMPDEST PUSH1 0x40 MLOAD DUP1 SWAP2 SUB SWAP1 REVERT JUMPDEST DUP7 PUSH20 0xFFFFFFFFFFFFFFFFFFFFFFFFFFFFFFFFFFFFFFFF AND PUSH32 0xBACBECA71A0B0D843D35E94220FFB0E50CBD806ABE4253858BB791216EEC6CBC DUP5 DUP5 DUP5 PUSH1 0x40 MLOAD PUSH2 0x18C SWAP4 SWAP3 SWAP2 SWAP1 PUSH2 0x5C7 JUMP JUMPDEST PUSH1 0x40 MLOAD DUP1 SWAP2 SUB SWAP1 LOG2 POP POP POP POP POP POP POP JUMP JUMPDEST PUSH0 DUP1 REVERT JUMPDEST PUSH0 DUP1 REVERT JUMPDEST PUSH0 PUSH20 0xFFFFFFFFFFFFFFFFFFFFFFFFFFFFFFFFFFFFFFFF DUP3 AND SWAP1 POP SWAP2 SWAP1 POP JUMP JUMPDEST PUSH0 PUSH2 0x1CE DUP3 PUSH2 0x1A5 JUMP JUMPDEST SWAP1 POP SWAP2 SWAP1 POP JUMP JUMPDEST PUSH2 0x1DE DUP2 PUSH2 0x1C4 JUMP JUMPDEST DUP2 EQ PUSH2 0x1E8 JUMPI PUSH0 DUP1 REVERT JUMPDEST POP JUMP JUMPDEST PUSH0 DUP2 CALLDATALOAD SWAP1 POP PUSH2 0x1F9 DUP2 PUSH2 0x1D5 JUMP JUMPDEST SWAP3 SWAP2 POP POP JUMP JUMPDEST PUSH0 DUP2 SWAP1 POP SWAP2 SWAP1 POP JUMP JUMPDEST PUSH2 0x211 DUP2 PUSH2 0x1FF JUMP JUMPDEST DUP2 EQ PUSH2 0x21B JUMPI PUSH0 DUP1 REVERT JUMPDEST POP JUMP JUMPDEST PUSH0 DUP2 CALLDATALOAD SWAP1 POP PUSH2 0x22C DUP2 PUSH2 0x208 JUMP JUMPDEST SWAP3 SWAP2 POP POP JUMP JUMPDEST PUSH0 DUP1 REVERT JUMPDEST PUSH0 DUP1 REVERT JUMPDEST PUSH0 DUP1 REVERT JUMPDEST PUSH0 DUP1 DUP4 PUSH1 0x1F DUP5 ADD SLT PUSH2 0x253 JUMPI PUSH2 0x252 PUSH2 0x232 JUMP JUMPDEST JUMPDEST DUP3 CALLDATALOAD SWAP1 POP PUSH8 0xFFFFFFFFFFFFFFFF DUP2 GT ISZERO PUSH2 0x270 JUMPI PUSH2 0x26F PUSH2 0x236 JUMP JUMPDEST JUMPDEST PUSH1 0x20 DUP4 ADD SWAP2 POP DUP4 PUSH1 0x20 DUP3 MUL DUP4 ADD GT ISZERO PUSH2 0x28C JUMPI PUSH2 0x28B PUSH2 0x23A JUMP JUMPDEST JUMPDEST SWAP3 POP SWAP3 SWAP1 POP JUMP JUMPDEST PUSH1 0x4 DUP2 LT PUSH2 0x29F JUMPI PUSH0 DUP1 REVERT JUMPDEST POP JUMP JUMPDEST PUSH0 DUP2 CALLDATALOAD SWAP1 POP PUSH2 0x2B0 DUP2 PUSH2 0x293 JUMP JUMPDEST SWAP3 SWAP2 POP POP JUMP JUMPDEST PUSH0 DUP1 DUP4 PUSH1 0x1F DUP5 ADD SLT PUSH2 0x2CB JUMPI PUSH2 0x2CA PUSH2 0x232 JUMP JUMPDEST JUMPDEST DUP3 CALLDATALOAD SWAP1 POP PUSH8 0xFFFFFFFFFFFFFFFF DUP2 GT ISZERO PUSH2 0x2E8 JUMPI PUSH2 0x2E7 PUSH2 0x236 JUMP JUMPDEST JUMPDEST PUSH1 0x20 DUP4 ADD SWAP2 POP DUP4 PUSH1 0x1 DUP3 MUL DUP4 ADD GT ISZERO PUSH2 0x304 JUMPI PUSH2 0x303 PUSH2 0x23A JUMP JUMPDEST JUMPDEST SWAP3 POP SWAP3 SWAP1 POP JUMP JUMPDEST PUSH0 DUP1 PUSH0 DUP1 PUSH0 DUP1 PUSH0 PUSH1 0xA0 DUP9 DUP11 SUB SLT ISZERO PUSH2 0x326 JUMPI PUSH2 0x325 PUSH2 0x19D JUMP JUMPDEST JUMPDEST PUSH0 PUSH2 0x333 DUP11 DUP3 DUP12 ADD PUSH2 0x1EB JUMP JUMPDEST SWAP8 POP POP PUSH1 0x20 PUSH2 0x344 DUP11 DUP3 DUP12 ADD PUSH2 0x21E JUMP JUMPDEST SWAP7 POP POP PUSH1 0x40 DUP9 ADD CALLDATALOAD PUSH8 0xFFFFFFFFFFFFFFFF DUP2 GT ISZERO PUSH2 0x365 JUMPI PUSH2 0x364 PUSH2 0x1A1 JUMP JUMPDEST JUMPDEST PUSH2 0x371 DUP11 DUP3 DUP12 ADD PUSH2 0x23E JUMP JUMPDEST SWAP6 POP SWAP6 POP POP PUSH1 0x60 PUSH2 0x384 DUP11 DUP3 DUP12 ADD PUSH2 0x2A2 JUMP JUMPDEST SWAP4 POP POP PUSH1 0x80 DUP9 ADD CALLDATALOAD PUSH8 0xFFFFFFFFFFFFFFFF DUP2 GT ISZERO PUSH2 0x3A5 JUMPI PUSH2 0x3A4 PUSH2 0x1A1 JUMP JUMPDEST JUMPDEST PUSH2 0x3B1 DUP11 DUP3 DUP12 ADD PUSH2 0x2B6 JUMP JUMPDEST SWAP3 POP SWAP3 POP POP SWAP3 SWAP6 SWAP9 SWAP2 SWAP5 SWAP8 POP SWAP3 SWAP6 POP JUMP JUMPDEST PUSH0 DUP3 DUP3 MSTORE PUSH1 0x20 DUP3 ADD SWAP1 POP SWAP3 SWAP2 POP POP JUMP JUMPDEST PUSH32 0x696E76616C6964206167656E7400000000000000000000000000000000000000 PUSH0 DUP3 ADD MSTORE POP JUMP JUMPDEST PUSH0 PUSH2 0x406 PUSH1 0xD DUP4 PUSH2 0x3C2 JUMP JUMPDEST SWAP2 POP PUSH2 0x411 DUP3 PUSH2 0x3D2 JUMP JUMPDEST PUSH1 0x20 DUP3 ADD SWAP1 POP SWAP2 SWAP1 POP JUMP JUMPDEST PUSH0 PUSH1 0x20 DUP3 ADD SWAP1 POP DUP2 DUP2 SUB PUSH0 DUP4 ADD MSTORE PUSH2 0x433 DUP2 PUSH2 0x3FA JUMP JUMPDEST SWAP1 POP SWAP2 SWAP1 POP JUMP JUMPDEST PUSH32 0x696E76616C696420726571756573740000000000000000000000000000000000 PUSH0 DUP3 ADD MSTORE POP JUMP JUMPDEST PUSH0 PUSH2 0x46E PUSH1 0xF DUP4 PUSH2 0x3C2 JUMP JUMPDEST SWAP2 POP PUSH2 0x479 DUP3 PUSH2 0x43A JUMP JUMPDEST PUSH1 0x20 DUP3 ADD SWAP1 POP SWAP2 SWAP1 POP JUMP JUMPDEST PUSH0 PUSH1 0x20 DUP3 ADD SWAP1 POP DUP2 DUP2 SUB PUSH0 DUP4 ADD MSTORE PUSH2 0x49B DUP2 PUSH2 0x462 JUMP JUMPDEST SWAP1 POP SWAP2 SWAP1 POP JUMP JUMPDEST PUSH32 0x6E65656420322D6F662D33000000000000000000000000000000000000000000 PUSH0 DUP3 ADD MSTORE POP JUMP JUMPDEST PUSH0 PUSH2 0x4D6 PUSH1 0xB DUP4 PUSH2 0x3C2 JUMP JUMPDEST SWAP2 POP PUSH2 0x4E1 DUP3 PUSH2 0x4A2 JUMP JUMPDEST PUSH1 0x20 DUP3 ADD SWAP1 POP SWAP2 SWAP1 POP JUMP JUMPDEST PUSH0 PUSH1 0x20 DUP3 ADD SWAP1 POP DUP2 DUP2 SUB PUSH0 DUP4 ADD MSTORE PUSH2 0x503 DUP2 PUSH2 0x4CA JUMP JUMPDEST SWAP1 POP SWAP2 SWAP1 POP JUMP JUMPDEST PUSH32 0x4E487B7100000000000000000000000000000000000000000000000000000000 PUSH0 MSTORE PUSH1 0x21 PUSH1 0x4 MSTORE PUSH1 0x24 PUSH0 REVERT JUMPDEST PUSH1 0x4 DUP2 LT PUSH2 0x548 JUMPI PUSH2 0x547 PUSH2 0x50A JUMP JUMPDEST JUMPDEST POP JUMP JUMPDEST PUSH0 DUP2 SWAP1 POP PUSH2 0x558 DUP3 PUSH2 0x537 JUMP JUMPDEST SWAP2 SWAP1 POP JUMP JUMPDEST PUSH0 PUSH2 0x567 DUP3 PUSH2 0x54B JUMP JUMPDEST SWAP1 POP SWAP2 SWAP1 POP JUMP JUMPDEST PUSH2 0x577 DUP2 PUSH2 0x55D JUMP JUMPDEST DUP3 MSTORE POP POP JUMP JUMPDEST DUP3 DUP2 DUP4 CALLDATACOPY PUSH0 DUP4 DUP4 ADD MSTORE POP POP POP JUMP JUMPDEST PUSH0 PUSH1 0x1F NOT PUSH1 0x1F DUP4 ADD AND SWAP1 POP SWAP2 SWAP1 POP JUMP JUMPDEST PUSH0 PUSH2 0x5A6 DUP4 DUP6 PUSH2 0x3C2 JUMP JUMPDEST SWAP4 POP PUSH2 0x5B3 DUP4 DUP6 DUP5 PUSH2 0x57D JUMP JUMPDEST PUSH2 0x5BC DUP4 PUSH2 0x58B JUMP JUMPDEST DUP5 ADD SWAP1 POP SWAP4 SWAP3 POP POP POP JUMP JUMPDEST PUSH0 PUSH1 0x40 DUP3 ADD SWAP1 POP PUSH2 0x5DA PUSH0 DUP4 ADD DUP7 PUSH2 0x56E JUMP JUMPDEST DUP2 DUP2 SUB PUSH1 0x20 DUP4 ADD MSTORE PUSH2 0x5ED DUP2 DUP5 DUP7 PUSH2 0x59B JUMP JUMPDEST SWAP1 POP SWAP5 SWAP4 POP POP POP POP JUMP INVALID LOG2 PUSH5 0x6970667358 0x22 SLT KECCAK256 PUSH25 0xF254AB4ED37390BE1B9A5A1EC26B3386CBE8B0052828C0F0E 0xEC PUSH13 0xE190E2264736F6C6343000818 STOP CALLER "},"methodIdentifiers":{"submitEvaluation(address,bytes32,bytes[],uint8,string)":"b1252c50"}}}}}