{
  "_format": "hh3-artifact-1",
  "contractName": "FeeVault",
  "sourceName": "contracts/FeeVault.sol",
  "abi": [
    {
      "inputs": [
        {
          "internalType": "address",
          "name": "usdcAddress",
          "type": "address"
        },
        {
          "internalType": "address",
          "name": "treasuryAddress",
          "type": "address"
        },
        {
          "internalType": "uint256",
          "name": "_feeAmount",
          "type": "uint256"
        }
      ],
      "stateMutability": "nonpayable",
      "type": "constructor"
    },
    {
      "anonymous": false,
      "inputs": [
        {
          "indexed": true,
          "internalType": "address",
          "name": "agentId",
          "type": "address"
        },
        {
          "indexed": false,
          "internalType": "uint256",
          "name": "amount",
          "type": "uint256"
        },
        {
          "indexed": false,
          "internalType": "uint256",
          "name": "timestamp",
          "type": "uint256"
        }
      ],
      "name": "FeeReceived",
      "type": "event"
    },
    {
      "inputs": [
        {
          "internalType": "address",
          "name": "agentId",
          "type": "address"
        }
      ],
      "name": "chargeFee",
      "outputs": [],
      "stateMutability": "nonpayable",
      "type": "function"
    },
    {
      "inputs": [],
      "name": "feeAmount",
      "outputs": [
        {
          "internalType": "uint256",
          "name": "",
          "type": "uint256"
        }
      ],
      "stateMutability": "view",
      "type": "function"
    },
    {
      "inputs": [],
      "name": "treasury",
      "outputs": [
        {
          "internalType": "address",
          "name": "",
          "type": "address"
        }
      ],
      "stateMutability": "view",
      "type": "function"
    },
    {
      "inputs": [],
      "name": "usdc",
      "outputs": [
        {
          "internalType": "contract IERC20",
          "name": "",
          "type": "address"
        }
      ],
      "stateMutability": "view",
      "type": "function"
    }
  ],
  "bytecode": "0x60e060405234801561000f575f80fd5b5060405161074d38038061074d8339818101604052810190610031919061013a565b8273ffffffffffffffffffffffffffffffffffffffff1660808173ffffffffffffffffffffffffffffffffffffffff16815250508173ffffffffffffffffffffffffffffffffffffffff1660c08173ffffffffffffffffffffffffffffffffffffffff16815250508060a0818152505050505061018a565b5f80fd5b5f73ffffffffffffffffffffffffffffffffffffffff82169050919050565b5f6100d6826100ad565b9050919050565b6100e6816100cc565b81146100f0575f80fd5b50565b5f81519050610101816100dd565b92915050565b5f819050919050565b61011981610107565b8114610123575f80fd5b50565b5f8151905061013481610110565b92915050565b5f805f60608486031215610151576101506100a9565b5b5f61015e868287016100f3565b935050602061016f868287016100f3565b925050604061018086828701610126565b9150509250925092565b60805160a05160c05161057f6101ce5f395f818160ea015261016f01525f818161010e01528181610190015261028601525f818160c60152610132015261057f5ff3fe608060405234801561000f575f80fd5b506004361061004a575f3560e01c80633e413bee1461004e57806361d027b31461006c57806369e154041461008a578063a66df701146100a8575b5f80fd5b6100566100c4565b6040516100639190610339565b60405180910390f35b6100746100e8565b6040516100819190610372565b60405180910390f35b61009261010c565b60405161009f91906103a3565b60405180910390f35b6100c260048036038101906100bd91906103ea565b610130565b005b7f000000000000000000000000000000000000000000000000000000000000000081565b7f000000000000000000000000000000000000000000000000000000000000000081565b7f000000000000000000000000000000000000000000000000000000000000000081565b7f000000000000000000000000000000000000000000000000000000000000000073ffffffffffffffffffffffffffffffffffffffff166323b872dd827f00000000000000000000000000000000000000000000000000000000000000007f00000000000000000000000000000000000000000000000000000000000000006040518463ffffffff1660e01b81526004016101cd93929190610415565b6020604051808303815f875af11580156101e9573d5f803e3d5ffd5b505050506040513d601f19601f8201168201806040525081019061020d919061047f565b61024c576040517f08c379a000000000000000000000000000000000000000000000000000000000815260040161024390610504565b60405180910390fd5b8073ffffffffffffffffffffffffffffffffffffffff167f69fd8dfdf4c34a045b2ab26beadc87baa94008985ac36dbba86ed543c65849c27f0000000000000000000000000000000000000000000000000000000000000000426040516102b4929190610522565b60405180910390a250565b5f73ffffffffffffffffffffffffffffffffffffffff82169050919050565b5f819050919050565b5f6103016102fc6102f7846102bf565b6102de565b6102bf565b9050919050565b5f610312826102e7565b9050919050565b5f61032382610308565b9050919050565b61033381610319565b82525050565b5f60208201905061034c5f83018461032a565b92915050565b5f61035c826102bf565b9050919050565b61036c81610352565b82525050565b5f6020820190506103855f830184610363565b92915050565b5f819050919050565b61039d8161038b565b82525050565b5f6020820190506103b65f830184610394565b92915050565b5f80fd5b6103c981610352565b81146103d3575f80fd5b50565b5f813590506103e4816103c0565b92915050565b5f602082840312156103ff576103fe6103bc565b5b5f61040c848285016103d6565b91505092915050565b5f6060820190506104285f830186610363565b6104356020830185610363565b6104426040830184610394565b949350505050565b5f8115159050919050565b61045e8161044a565b8114610468575f80fd5b50565b5f8151905061047981610455565b92915050565b5f60208284031215610494576104936103bc565b5b5f6104a18482850161046b565b91505092915050565b5f82825260208201905092915050565b7f666565207472616e73666572206661696c6564000000000000000000000000005f82015250565b5f6104ee6013836104aa565b91506104f9826104ba565b602082019050919050565b5f6020820190508181035f83015261051b816104e2565b9050919050565b5f6040820190506105355f830185610394565b6105426020830184610394565b939250505056fea2646970667358221220fe50ddd4d1ba1bdb146600729bfd435d19186b8e03e529f31715be46ce59a9ac64736f6c63430008180033",
  "linkReferences": {},
  "deployedLinkReferences": {},
  "immutableReferences": {
    "314": [
      {
        "length": 32,
        "start": 198
      },
      {
        "length": 32,
        "start": 306
      }
    ],
    "316": [
      {
        "length": 32,
        "start": 270
      },
      {
        "length": 32,
        "start": 400
      },
      {
        "length": 32,
        "start": 646
      }
    ],
    "318": [
      {
        "length": 32,
        "start": 234
      },
      {
        "length": 32,
        "start": 367
      }
    ]
  },
  "inputSourceName": "project/contracts/FeeVault.sol",
  "buildInfoId": "solc-0_8_24-7131cddf8a8f9e109b0869a5bbb4eb4119acacd6"
}