{
  "_format": "hh3-artifact-1",
  "contractName": "EvaluationEngine",
  "sourceName": "contracts/EvaluationEngine.sol",
  "abi": [
    {
      "anonymous": false,
      "inputs": [
        {
          "indexed": true,
          "internalType": "address",
          "name": "agentId",
          "type": "address"
        },
        {
          "indexed": false,
          "internalType": "enum EvaluationEngine.Tier",
          "name": "tier",
          "type": "uint8"
        },
        {
          "indexed": false,
          "internalType": "string",
          "name": "reason",
          "type": "string"
        }
      ],
      "name": "VerdictReached",
      "type": "event"
    },
    {
      "inputs": [
        {
          "internalType": "address",
          "name": "agentId",
          "type": "address"
        },
        {
          "internalType": "bytes32",
          "name": "actionRequestHash",
          "type": "bytes32"
        },
        {
          "internalType": "bytes[]",
          "name": "validatorSignatures",
          "type": "bytes[]"
        },
        {
          "internalType": "enum EvaluationEngine.Tier",
          "name": "tier",
          "type": "uint8"
        },
        {
          "internalType": "string",
          "name": "reason",
          "type": "string"
        }
      ],
      "name": "submitEvaluation",
      "outputs": [],
      "stateMutability": "nonpayable",
      "type": "function"
    }
  ],
  "bytecode": "0x608060405234801561000f575f80fd5b5061062d8061001d5f395ff3fe608060405234801561000f575f80fd5b5060043610610029575f3560e01c8063b1252c501461002d575b5f80fd5b6100476004803603810190610042919061030b565b610049565b005b5f73ffffffffffffffffffffffffffffffffffffffff168773ffffffffffffffffffffffffffffffffffffffff16036100b7576040517f08c379a00000000000000000000000000000000000000000000000000000000081526004016100ae9061041c565b60405180910390fd5b5f801b86036100fb576040517f08c379a00000000000000000000000000000000000000000000000000000000081526004016100f290610484565b60405180910390fd5b6002858590501015610142576040517f08c379a0000000000000000000000000000000000000000000000000000000008152600401610139906104ec565b60405180910390fd5b8673ffffffffffffffffffffffffffffffffffffffff167fbacbeca71a0b0d843d35e94220ffb0e50cbd806abe4253858bb791216eec6cbc84848460405161018c939291906105c7565b60405180910390a250505050505050565b5f80fd5b5f80fd5b5f73ffffffffffffffffffffffffffffffffffffffff82169050919050565b5f6101ce826101a5565b9050919050565b6101de816101c4565b81146101e8575f80fd5b50565b5f813590506101f9816101d5565b92915050565b5f819050919050565b610211816101ff565b811461021b575f80fd5b50565b5f8135905061022c81610208565b92915050565b5f80fd5b5f80fd5b5f80fd5b5f8083601f84011261025357610252610232565b5b8235905067ffffffffffffffff8111156102705761026f610236565b5b60208301915083602082028301111561028c5761028b61023a565b5b9250929050565b6004811061029f575f80fd5b50565b5f813590506102b081610293565b92915050565b5f8083601f8401126102cb576102ca610232565b5b8235905067ffffffffffffffff8111156102e8576102e7610236565b5b6020830191508360018202830111156103045761030361023a565b5b9250929050565b5f805f805f805f60a0888a0312156103265761032561019d565b5b5f6103338a828b016101eb565b97505060206103448a828b0161021e565b965050604088013567ffffffffffffffff811115610365576103646101a1565b5b6103718a828b0161023e565b955095505060606103848a828b016102a2565b935050608088013567ffffffffffffffff8111156103a5576103a46101a1565b5b6103b18a828b016102b6565b925092505092959891949750929550565b5f82825260208201905092915050565b7f696e76616c6964206167656e74000000000000000000000000000000000000005f82015250565b5f610406600d836103c2565b9150610411826103d2565b602082019050919050565b5f6020820190508181035f830152610433816103fa565b9050919050565b7f696e76616c6964207265717565737400000000000000000000000000000000005f82015250565b5f61046e600f836103c2565b91506104798261043a565b602082019050919050565b5f6020820190508181035f83015261049b81610462565b9050919050565b7f6e65656420322d6f662d330000000000000000000000000000000000000000005f82015250565b5f6104d6600b836103c2565b91506104e1826104a2565b602082019050919050565b5f6020820190508181035f830152610503816104ca565b9050919050565b7f4e487b71000000000000000000000000000000000000000000000000000000005f52602160045260245ffd5b600481106105485761054761050a565b5b50565b5f81905061055882610537565b919050565b5f6105678261054b565b9050919050565b6105778161055d565b82525050565b828183375f83830152505050565b5f601f19601f8301169050919050565b5f6105a683856103c2565b93506105b383858461057d565b6105bc8361058b565b840190509392505050565b5f6040820190506105da5f83018661056e565b81810360208301526105ed81848661059b565b905094935050505056fea2646970667358221220780f254ab4ed37390be1b9a5a1ec26b3386cbe8b0052828c0f0eec6c0e190e2264736f6c63430008180033",
  "linkReferences": {},
  "deployedLinkReferences": {},
  "immutableReferences": {},
  "inputSourceName": "project/contracts/EvaluationEngine.sol",
  "buildInfoId": "solc-0_8_24-7131cddf8a8f9e109b0869a5bbb4eb4119acacd6"
}