{
  "_format": "hh3-artifact-1",
  "contractName": "AgentRegistry",
  "sourceName": "contracts/AgentRegistry.sol",
  "abi": [
    {
      "anonymous": false,
      "inputs": [
        {
          "indexed": true,
          "internalType": "address",
          "name": "wallet",
          "type": "address"
        },
        {
          "indexed": false,
          "internalType": "uint256",
          "name": "stake",
          "type": "uint256"
        },
        {
          "indexed": false,
          "internalType": "uint256",
          "name": "registeredAt",
          "type": "uint256"
        }
      ],
      "name": "AgentRegistered",
      "type": "event"
    },
    {
      "anonymous": false,
      "inputs": [
        {
          "indexed": true,
          "internalType": "address",
          "name": "wallet",
          "type": "address"
        },
        {
          "indexed": false,
          "internalType": "uint256",
          "name": "score",
          "type": "uint256"
        }
      ],
      "name": "AgentScoreUpdated",
      "type": "event"
    },
    {
      "inputs": [
        {
          "internalType": "address",
          "name": "",
          "type": "address"
        }
      ],
      "name": "agents",
      "outputs": [
        {
          "internalType": "address",
          "name": "wallet",
          "type": "address"
        },
        {
          "internalType": "uint256",
          "name": "stake",
          "type": "uint256"
        },
        {
          "internalType": "uint256",
          "name": "score",
          "type": "uint256"
        },
        {
          "internalType": "uint256",
          "name": "registeredAt",
          "type": "uint256"
        },
        {
          "internalType": "bool",
          "name": "active",
          "type": "bool"
        }
      ],
      "stateMutability": "view",
      "type": "function"
    },
    {
      "inputs": [
        {
          "internalType": "address",
          "name": "wallet",
          "type": "address"
        }
      ],
      "name": "getAgent",
      "outputs": [
        {
          "components": [
            {
              "internalType": "address",
              "name": "wallet",
              "type": "address"
            },
            {
              "internalType": "uint256",
              "name": "stake",
              "type": "uint256"
            },
            {
              "internalType": "uint256",
              "name": "score",
              "type": "uint256"
            },
            {
              "internalType": "uint256",
              "name": "registeredAt",
              "type": "uint256"
            },
            {
              "internalType": "bool",
              "name": "active",
              "type": "bool"
            }
          ],
          "internalType": "struct AgentRegistry.Agent",
          "name": "",
          "type": "tuple"
        }
      ],
      "stateMutability": "view",
      "type": "function"
    },
    {
      "inputs": [
        {
          "internalType": "address",
          "name": "wallet",
          "type": "address"
        },
        {
          "internalType": "uint256",
          "name": "stake",
          "type": "uint256"
        }
      ],
      "name": "registerAgent",
      "outputs": [],
      "stateMutability": "nonpayable",
      "type": "function"
    },
    {
      "inputs": [
        {
          "internalType": "address",
          "name": "wallet",
          "type": "address"
        },
        {
          "internalType": "uint256",
          "name": "score",
          "type": "uint256"
        }
      ],
      "name": "updateScore",
      "outputs": [],
      "stateMutability": "nonpayable",
      "type": "function"
    }
  ],
  "bytecode": "0x608060405234801561000f575f80fd5b506109c68061001d5f395ff3fe608060405234801561000f575f80fd5b506004361061004a575f3560e01c80633543ad581461004e57806365d977241461006a578063fb3551ff14610086578063fd66091e146100b6575b5f80fd5b6100686004803603810190610063919061066a565b6100ea565b005b610084600480360381019061007f919061066a565b610338565b005b6100a0600480360381019061009b91906106a8565b610459565b6040516100ad9190610771565b60405180910390f35b6100d060048036038101906100cb91906106a8565b61053b565b6040516100e19594939291906107b7565b60405180910390f35b5f73ffffffffffffffffffffffffffffffffffffffff168273ffffffffffffffffffffffffffffffffffffffff1603610158576040517f08c379a000000000000000000000000000000000000000000000000000000000815260040161014f90610862565b60405180910390fd5b5f808373ffffffffffffffffffffffffffffffffffffffff1673ffffffffffffffffffffffffffffffffffffffff1681526020019081526020015f206004015f9054906101000a900460ff16156101e4576040517f08c379a00000000000000000000000000000000000000000000000000000000081526004016101db906108ca565b60405180910390fd5b6040518060a001604052808373ffffffffffffffffffffffffffffffffffffffff1681526020018281526020015f8152602001428152602001600115158152505f808473ffffffffffffffffffffffffffffffffffffffff1673ffffffffffffffffffffffffffffffffffffffff1681526020019081526020015f205f820151815f015f6101000a81548173ffffffffffffffffffffffffffffffffffffffff021916908373ffffffffffffffffffffffffffffffffffffffff1602179055506020820151816001015560408201518160020155606082015181600301556080820151816004015f6101000a81548160ff0219169083151502179055509050508173ffffffffffffffffffffffffffffffffffffffff167f3188d3621b63d3851dbf88b824b7d8c9645eb049a56219e7feecafec5907cddb824260405161032c9291906108e8565b60405180910390a25050565b5f808373ffffffffffffffffffffffffffffffffffffffff1673ffffffffffffffffffffffffffffffffffffffff1681526020019081526020015f206004015f9054906101000a900460ff166103c3576040517f08c379a00000000000000000000000000000000000000000000000000000000081526004016103ba90610959565b60405180910390fd5b805f808473ffffffffffffffffffffffffffffffffffffffff1673ffffffffffffffffffffffffffffffffffffffff1681526020019081526020015f20600201819055508173ffffffffffffffffffffffffffffffffffffffff167f26938b6c64f6958cc27bbc67360faaf7a9a4cb04082b103a654680363057b6608260405161044d9190610977565b60405180910390a25050565b610461610597565b5f808373ffffffffffffffffffffffffffffffffffffffff1673ffffffffffffffffffffffffffffffffffffffff1681526020019081526020015f206040518060a00160405290815f82015f9054906101000a900473ffffffffffffffffffffffffffffffffffffffff1673ffffffffffffffffffffffffffffffffffffffff1673ffffffffffffffffffffffffffffffffffffffff168152602001600182015481526020016002820154815260200160038201548152602001600482015f9054906101000a900460ff1615151515815250509050919050565b5f602052805f5260405f205f91509050805f015f9054906101000a900473ffffffffffffffffffffffffffffffffffffffff1690806001015490806002015490806003015490806004015f9054906101000a900460ff16905085565b6040518060a001604052805f73ffffffffffffffffffffffffffffffffffffffff1681526020015f81526020015f81526020015f81526020015f151581525090565b5f80fd5b5f73ffffffffffffffffffffffffffffffffffffffff82169050919050565b5f610606826105dd565b9050919050565b610616816105fc565b8114610620575f80fd5b50565b5f813590506106318161060d565b92915050565b5f819050919050565b61064981610637565b8114610653575f80fd5b50565b5f8135905061066481610640565b92915050565b5f80604083850312156106805761067f6105d9565b5b5f61068d85828601610623565b925050602061069e85828601610656565b9150509250929050565b5f602082840312156106bd576106bc6105d9565b5b5f6106ca84828501610623565b91505092915050565b6106dc816105fc565b82525050565b6106eb81610637565b82525050565b5f8115159050919050565b610705816106f1565b82525050565b60a082015f82015161071f5f8501826106d3565b50602082015161073260208501826106e2565b50604082015161074560408501826106e2565b50606082015161075860608501826106e2565b50608082015161076b60808501826106fc565b50505050565b5f60a0820190506107845f83018461070b565b92915050565b610793816105fc565b82525050565b6107a281610637565b82525050565b6107b1816106f1565b82525050565b5f60a0820190506107ca5f83018861078a565b6107d76020830187610799565b6107e46040830186610799565b6107f16060830185610799565b6107fe60808301846107a8565b9695505050505050565b5f82825260208201905092915050565b7f696e76616c69642077616c6c65740000000000000000000000000000000000005f82015250565b5f61084c600e83610808565b915061085782610818565b602082019050919050565b5f6020820190508181035f83015261087981610840565b9050919050565b7f616c7265616479207265676973746572656400000000000000000000000000005f82015250565b5f6108b4601283610808565b91506108bf82610880565b602082019050919050565b5f6020820190508181035f8301526108e1816108a8565b9050919050565b5f6040820190506108fb5f830185610799565b6109086020830184610799565b9392505050565b7f6e6f7420726567697374657265640000000000000000000000000000000000005f82015250565b5f610943600e83610808565b915061094e8261090f565b602082019050919050565b5f6020820190508181035f83015261097081610937565b9050919050565b5f60208201905061098a5f830184610799565b9291505056fea2646970667358221220550154b716cb3213c11de7354b9826d1d5ec7363296b45c1f17f93020e4303f864736f6c63430008180033",
  "linkReferences": {},
  "deployedLinkReferences": {},
  "immutableReferences": {},
  "inputSourceName": "project/contracts/AgentRegistry.sol",
  "buildInfoId": "solc-0_8_24-7131cddf8a8f9e109b0869a5bbb4eb4119acacd6"
}